{
  "address": "0x5aD2824d3B4b21c704F1e7faAA621A1e2b3F6836",
  "abi": [
    {
      "inputs": [
        {
          "internalType": "uint256",
          "name": "initialSupply",
          "type": "uint256"
        }
      ],
      "stateMutability": "nonpayable",
      "type": "constructor"
    },
    {
      "anonymous": false,
      "inputs": [
        {
          "indexed": true,
          "internalType": "address",
          "name": "owner",
          "type": "address"
        },
        {
          "indexed": true,
          "internalType": "address",
          "name": "spender",
          "type": "address"
        },
        {
          "indexed": false,
          "internalType": "uint256",
          "name": "value",
          "type": "uint256"
        }
      ],
      "name": "Approval",
      "type": "event"
    },
    {
      "anonymous": false,
      "inputs": [
        {
          "indexed": true,
          "internalType": "address",
          "name": "from",
          "type": "address"
        },
        {
          "indexed": true,
          "internalType": "address",
          "name": "to",
          "type": "address"
        },
        {
          "indexed": false,
          "internalType": "uint256",
          "name": "value",
          "type": "uint256"
        }
      ],
      "name": "Transfer",
      "type": "event"
    },
    {
      "inputs": [],
      "name": "DOMAIN_SEPARATOR",
      "outputs": [
        {
          "internalType": "bytes32",
          "name": "",
          "type": "bytes32"
        }
      ],
      "stateMutability": "view",
      "type": "function"
    },
    {
      "inputs": [
        {
          "internalType": "address",
          "name": "owner",
          "type": "address"
        },
        {
          "internalType": "address",
          "name": "spender",
          "type": "address"
        }
      ],
      "name": "allowance",
      "outputs": [
        {
          "internalType": "uint256",
          "name": "",
          "type": "uint256"
        }
      ],
      "stateMutability": "view",
      "type": "function"
    },
    {
      "inputs": [
        {
          "internalType": "address",
          "name": "spender",
          "type": "address"
        },
        {
          "internalType": "uint256",
          "name": "amount",
          "type": "uint256"
        }
      ],
      "name": "approve",
      "outputs": [
        {
          "internalType": "bool",
          "name": "",
          "type": "bool"
        }
      ],
      "stateMutability": "nonpayable",
      "type": "function"
    },
    {
      "inputs": [
        {
          "internalType": "address",
          "name": "account",
          "type": "address"
        }
      ],
      "name": "balanceOf",
      "outputs": [
        {
          "internalType": "uint256",
          "name": "",
          "type": "uint256"
        }
      ],
      "stateMutability": "view",
      "type": "function"
    },
    {
      "inputs": [],
      "name": "decimals",
      "outputs": [
        {
          "internalType": "uint8",
          "name": "",
          "type": "uint8"
        }
      ],
      "stateMutability": "view",
      "type": "function"
    },
    {
      "inputs": [
        {
          "internalType": "address",
          "name": "spender",
          "type": "address"
        },
        {
          "internalType": "uint256",
          "name": "subtractedValue",
          "type": "uint256"
        }
      ],
      "name": "decreaseAllowance",
      "outputs": [
        {
          "internalType": "bool",
          "name": "",
          "type": "bool"
        }
      ],
      "stateMutability": "nonpayable",
      "type": "function"
    },
    {
      "inputs": [],
      "name": "faucetMint",
      "outputs": [],
      "stateMutability": "nonpayable",
      "type": "function"
    },
    {
      "inputs": [
        {
          "internalType": "address",
          "name": "spender",
          "type": "address"
        },
        {
          "internalType": "uint256",
          "name": "addedValue",
          "type": "uint256"
        }
      ],
      "name": "increaseAllowance",
      "outputs": [
        {
          "internalType": "bool",
          "name": "",
          "type": "bool"
        }
      ],
      "stateMutability": "nonpayable",
      "type": "function"
    },
    {
      "inputs": [
        {
          "internalType": "address",
          "name": "",
          "type": "address"
        }
      ],
      "name": "lastFaucetMint",
      "outputs": [
        {
          "internalType": "uint256",
          "name": "",
          "type": "uint256"
        }
      ],
      "stateMutability": "view",
      "type": "function"
    },
    {
      "inputs": [
        {
          "internalType": "uint256",
          "name": "amount",
          "type": "uint256"
        },
        {
          "internalType": "address",
          "name": "to",
          "type": "address"
        }
      ],
      "name": "mint",
      "outputs": [],
      "stateMutability": "nonpayable",
      "type": "function"
    },
    {
      "inputs": [],
      "name": "name",
      "outputs": [
        {
          "internalType": "string",
          "name": "",
          "type": "string"
        }
      ],
      "stateMutability": "view",
      "type": "function"
    },
    {
      "inputs": [
        {
          "internalType": "address",
          "name": "owner",
          "type": "address"
        }
      ],
      "name": "nonces",
      "outputs": [
        {
          "internalType": "uint256",
          "name": "",
          "type": "uint256"
        }
      ],
      "stateMutability": "view",
      "type": "function"
    },
    {
      "inputs": [],
      "name": "owner",
      "outputs": [
        {
          "internalType": "address",
          "name": "",
          "type": "address"
        }
      ],
      "stateMutability": "view",
      "type": "function"
    },
    {
      "inputs": [
        {
          "internalType": "address",
          "name": "owner",
          "type": "address"
        },
        {
          "internalType": "address",
          "name": "spender",
          "type": "address"
        },
        {
          "internalType": "uint256",
          "name": "value",
          "type": "uint256"
        },
        {
          "internalType": "uint256",
          "name": "deadline",
          "type": "uint256"
        },
        {
          "internalType": "uint8",
          "name": "v",
          "type": "uint8"
        },
        {
          "internalType": "bytes32",
          "name": "r",
          "type": "bytes32"
        },
        {
          "internalType": "bytes32",
          "name": "s",
          "type": "bytes32"
        }
      ],
      "name": "permit",
      "outputs": [],
      "stateMutability": "nonpayable",
      "type": "function"
    },
    {
      "inputs": [],
      "name": "symbol",
      "outputs": [
        {
          "internalType": "string",
          "name": "",
          "type": "string"
        }
      ],
      "stateMutability": "view",
      "type": "function"
    },
    {
      "inputs": [],
      "name": "totalSupply",
      "outputs": [
        {
          "internalType": "uint256",
          "name": "",
          "type": "uint256"
        }
      ],
      "stateMutability": "view",
      "type": "function"
    },
    {
      "inputs": [
        {
          "internalType": "address",
          "name": "to",
          "type": "address"
        },
        {
          "internalType": "uint256",
          "name": "amount",
          "type": "uint256"
        }
      ],
      "name": "transfer",
      "outputs": [
        {
          "internalType": "bool",
          "name": "",
          "type": "bool"
        }
      ],
      "stateMutability": "nonpayable",
      "type": "function"
    },
    {
      "inputs": [
        {
          "internalType": "address",
          "name": "from",
          "type": "address"
        },
        {
          "internalType": "address",
          "name": "to",
          "type": "address"
        },
        {
          "internalType": "uint256",
          "name": "amount",
          "type": "uint256"
        }
      ],
      "name": "transferFrom",
      "outputs": [
        {
          "internalType": "bool",
          "name": "",
          "type": "bool"
        }
      ],
      "stateMutability": "nonpayable",
      "type": "function"
    }
  ],
  "transactionHash": "0x9e759fc67b61eafb31bf2241346c528fa98efece5e8d6eb71a9366bf5c439bd6",
  "args": [
    "1000000000000000000000000000"
  ],
  "numDeployments": 2,
  "solcInputHash": "19fc5842d9effee297e0fb952cc1ec34",
  "bytecode": "0x6101406040523480156200001257600080fd5b50604051620017843803806200178483398101604081905262000035916200027e565b6040518060400160405280600b81526020016a29ba32b0b5902a37b5b2b760a91b81525080604051806040016040528060018152602001603160f81b8152506040518060400160405280600b81526020016a29ba32b0b5902a37b5b2b760a91b81525060405180604001604052806005815260200164535445414b60d81b8152508160039081620000c791906200033c565b506004620000d682826200033c565b5050825160209384012082519284019290922060e08390526101008190524660a0818152604080517f8b73c3c69bb8fe3d512ecc4cf759cc79239f7b179b0ffacaa9a75d522b39400f818901819052818301979097526060810194909452608080850193909352308483018190528151808603909301835260c094850190915281519190960120905292909252610120525050600780546001600160a01b031916339081179091556200018a908262000191565b5062000430565b6001600160a01b038216620001ec5760405162461bcd60e51b815260206004820152601f60248201527f45524332303a206d696e7420746f20746865207a65726f206164647265737300604482015260640160405180910390fd5b806002600082825462000200919062000408565b90915550506001600160a01b038216600090815260208190526040812080548392906200022f90849062000408565b90915550506040518181526001600160a01b038316906000907fddf252ad1be2c89b69c2b068fc378daa952ba7f163c4a11628f55a4df523b3ef9060200160405180910390a35050565b505050565b6000602082840312156200029157600080fd5b5051919050565b634e487b7160e01b600052604160045260246000fd5b600181811c90821680620002c357607f821691505b602082108103620002e457634e487b7160e01b600052602260045260246000fd5b50919050565b601f8211156200027957600081815260208120601f850160051c81016020861015620003135750805b601f850160051c820191505b8181101562000334578281556001016200031f565b505050505050565b81516001600160401b0381111562000358576200035862000298565b6200037081620003698454620002ae565b84620002ea565b602080601f831160018114620003a857600084156200038f5750858301515b600019600386901b1c1916600185901b17855562000334565b600085815260208120601f198616915b82811015620003d957888601518255948401946001909101908401620003b8565b5085821015620003f85787850151600019600388901b60f8161c191681555b5050505050600190811b01905550565b808201808211156200042a57634e487b7160e01b600052601160045260246000fd5b92915050565b60805160a05160c05160e0516101005161012051611304620004806000396000610c5b01526000610caa01526000610c8501526000610bde01526000610c0801526000610c3201526113046000f3fe608060405234801561001057600080fd5b50600436106101365760003560e01c80637ecebe00116100b257806395d89b4111610081578063a9059cbb11610066578063a9059cbb1461028a578063d505accf1461029d578063dd62ed3e146102b057600080fd5b806395d89b411461026f578063a457c2d71461027757600080fd5b80637ecebe00146101fe57806382041050146102115780638da5cb5b1461023157806394bf804d1461025c57600080fd5b806323b872dd116101095780633644e515116100ee5780633644e515146101ba57806339509351146101c257806370a08231146101d557600080fd5b806323b872dd14610198578063313ce567146101ab57600080fd5b806306fdde031461013b578063095ea7b31461015957806313eda8fc1461017c57806318160ddd14610186575b600080fd5b6101436102e9565b604051610150919061108d565b60405180910390f35b61016c6101673660046110f7565b61037b565b6040519015158152602001610150565b610184610395565b005b6002545b604051908152602001610150565b61016c6101a6366004611121565b6103e5565b60405160128152602001610150565b61018a610409565b61016c6101d03660046110f7565b610418565b61018a6101e336600461115d565b6001600160a01b031660009081526020819052604090205490565b61018a61020c36600461115d565b610457565b61018a61021f36600461115d565b60086020526000908152604090205481565b600754610244906001600160a01b031681565b6040516001600160a01b039091168152602001610150565b61018461026a36600461117f565b610475565b6101436104a3565b61016c6102853660046110f7565b6104b2565b61016c6102983660046110f7565b610561565b6101846102ab3660046111ab565b61056f565b61018a6102be36600461121e565b6001600160a01b03918216600090815260016020908152604080832093909416825291909152205490565b6060600380546102f890611248565b80601f016020809104026020016040519081016040528092919081815260200182805461032490611248565b80156103715780601f1061034657610100808354040283529160200191610371565b820191906000526020600020905b81548152906001019060200180831161035457829003601f168201915b5050505050905090565b6000336103898185856106d3565b60019150505b92915050565b3360009081526008602052604090205462015180906103b49042611292565b116103be57600080fd5b3360008181526008602052604090204290556103e39068056bc75e2d6310000061082b565b565b6000336103f385828561090a565b6103fe8585856109ba565b506001949350505050565b6000610413610bd1565b905090565b3360008181526001602090815260408083206001600160a01b038716845290915281205490919061038990829086906104529087906112a5565b6106d3565b6001600160a01b03811660009081526005602052604081205461038f565b6007546001600160a01b0316336001600160a01b03161461049557600080fd5b61049f818361082b565b5050565b6060600480546102f890611248565b3360008181526001602090815260408083206001600160a01b0387168452909152812054909190838110156105545760405162461bcd60e51b815260206004820152602560248201527f45524332303a2064656372656173656420616c6c6f77616e63652062656c6f7760448201527f207a65726f00000000000000000000000000000000000000000000000000000060648201526084015b60405180910390fd5b6103fe82868684036106d3565b6000336103898185856109ba565b834211156105bf5760405162461bcd60e51b815260206004820152601d60248201527f45524332305065726d69743a206578706972656420646561646c696e65000000604482015260640161054b565b60007f6e71edae12b1b97f4d1f60370fef10105fa2faae0126114a169c64845d6126c98888886105ee8c610cf8565b6040805160208101969096526001600160a01b0394851690860152929091166060840152608083015260a082015260c0810186905260e001604051602081830303815290604052805190602001209050600061064982610d20565b9050600061065982878787610d89565b9050896001600160a01b0316816001600160a01b0316146106bc5760405162461bcd60e51b815260206004820152601e60248201527f45524332305065726d69743a20696e76616c6964207369676e61747572650000604482015260640161054b565b6106c78a8a8a6106d3565b50505050505050505050565b6001600160a01b03831661074e5760405162461bcd60e51b8152602060048201526024808201527f45524332303a20617070726f76652066726f6d20746865207a65726f2061646460448201527f7265737300000000000000000000000000000000000000000000000000000000606482015260840161054b565b6001600160a01b0382166107ca5760405162461bcd60e51b815260206004820152602260248201527f45524332303a20617070726f766520746f20746865207a65726f20616464726560448201527f7373000000000000000000000000000000000000000000000000000000000000606482015260840161054b565b6001600160a01b0383811660008181526001602090815260408083209487168084529482529182902085905590518481527f8c5be1e5ebec7d5bd14f71427d1e84f3dd0314c0f7b2291e5b200ac8c7c3b925910160405180910390a3505050565b6001600160a01b0382166108815760405162461bcd60e51b815260206004820152601f60248201527f45524332303a206d696e7420746f20746865207a65726f206164647265737300604482015260640161054b565b806002600082825461089391906112a5565b90915550506001600160a01b038216600090815260208190526040812080548392906108c09084906112a5565b90915550506040518181526001600160a01b038316906000907fddf252ad1be2c89b69c2b068fc378daa952ba7f163c4a11628f55a4df523b3ef9060200160405180910390a35050565b6001600160a01b038381166000908152600160209081526040808320938616835292905220547fffffffffffffffffffffffffffffffffffffffffffffffffffffffffffffffff81146109b457818110156109a75760405162461bcd60e51b815260206004820152601d60248201527f45524332303a20696e73756666696369656e7420616c6c6f77616e6365000000604482015260640161054b565b6109b484848484036106d3565b50505050565b6001600160a01b038316610a365760405162461bcd60e51b815260206004820152602560248201527f45524332303a207472616e736665722066726f6d20746865207a65726f20616460448201527f6472657373000000000000000000000000000000000000000000000000000000606482015260840161054b565b6001600160a01b038216610ab25760405162461bcd60e51b815260206004820152602360248201527f45524332303a207472616e7366657220746f20746865207a65726f206164647260448201527f6573730000000000000000000000000000000000000000000000000000000000606482015260840161054b565b6001600160a01b03831660009081526020819052604090205481811015610b415760405162461bcd60e51b815260206004820152602660248201527f45524332303a207472616e7366657220616d6f756e742065786365656473206260448201527f616c616e63650000000000000000000000000000000000000000000000000000606482015260840161054b565b6001600160a01b03808516600090815260208190526040808220858503905591851681529081208054849290610b789084906112a5565b92505081905550826001600160a01b0316846001600160a01b03167fddf252ad1be2c89b69c2b068fc378daa952ba7f163c4a11628f55a4df523b3ef84604051610bc491815260200190565b60405180910390a36109b4565b6000306001600160a01b037f000000000000000000000000000000000000000000000000000000000000000016148015610c2a57507f000000000000000000000000000000000000000000000000000000000000000046145b15610c5457507f000000000000000000000000000000000000000000000000000000000000000090565b50604080517f00000000000000000000000000000000000000000000000000000000000000006020808301919091527f0000000000000000000000000000000000000000000000000000000000000000828401527f000000000000000000000000000000000000000000000000000000000000000060608301524660808301523060a0808401919091528351808403909101815260c0909201909252805191012090565b6001600160a01b03811660009081526005602052604090208054600181018255905b50919050565b600061038f610d2d610bd1565b836040517f19010000000000000000000000000000000000000000000000000000000000006020820152602281018390526042810182905260009060620160405160208183030381529060405280519060200120905092915050565b6000806000610d9a87878787610db1565b91509150610da781610e9e565b5095945050505050565b6000807f7fffffffffffffffffffffffffffffff5d576e7357a4501ddfe92f46681b20a0831115610de85750600090506003610e95565b8460ff16601b14158015610e0057508460ff16601c14155b15610e115750600090506004610e95565b6040805160008082526020820180845289905260ff881692820192909252606081018690526080810185905260019060a0016020604051602081039080840390855afa158015610e65573d6000803e3d6000fd5b5050604051601f1901519150506001600160a01b038116610e8e57600060019250925050610e95565b9150600090505b94509492505050565b6000816004811115610eb257610eb26112b8565b03610eba5750565b6001816004811115610ece57610ece6112b8565b03610f1b5760405162461bcd60e51b815260206004820152601860248201527f45434453413a20696e76616c6964207369676e61747572650000000000000000604482015260640161054b565b6002816004811115610f2f57610f2f6112b8565b03610f7c5760405162461bcd60e51b815260206004820152601f60248201527f45434453413a20696e76616c6964207369676e6174757265206c656e67746800604482015260640161054b565b6003816004811115610f9057610f906112b8565b036110035760405162461bcd60e51b815260206004820152602260248201527f45434453413a20696e76616c6964207369676e6174757265202773272076616c60448201527f7565000000000000000000000000000000000000000000000000000000000000606482015260840161054b565b6004816004811115611017576110176112b8565b0361108a5760405162461bcd60e51b815260206004820152602260248201527f45434453413a20696e76616c6964207369676e6174757265202776272076616c60448201527f7565000000000000000000000000000000000000000000000000000000000000606482015260840161054b565b50565b600060208083528351808285015260005b818110156110ba5785810183015185820160400152820161109e565b506000604082860101526040601f19601f8301168501019250505092915050565b80356001600160a01b03811681146110f257600080fd5b919050565b6000806040838503121561110a57600080fd5b611113836110db565b946020939093013593505050565b60008060006060848603121561113657600080fd5b61113f846110db565b925061114d602085016110db565b9150604084013590509250925092565b60006020828403121561116f57600080fd5b611178826110db565b9392505050565b6000806040838503121561119257600080fd5b823591506111a2602084016110db565b90509250929050565b600080600080600080600060e0888a0312156111c657600080fd5b6111cf886110db565b96506111dd602089016110db565b95506040880135945060608801359350608088013560ff8116811461120157600080fd5b9699959850939692959460a0840135945060c09093013592915050565b6000806040838503121561123157600080fd5b61123a836110db565b91506111a2602084016110db565b600181811c9082168061125c57607f821691505b602082108103610d1a57634e487b7160e01b600052602260045260246000fd5b634e487b7160e01b600052601160045260246000fd5b8181038181111561038f5761038f61127c565b8082018082111561038f5761038f61127c565b634e487b7160e01b600052602160045260246000fdfea2646970667358221220a1d436173236805577300fa3d80960fee3e9d38650d443e45b65f4a8c783797e64736f6c63430008110033",
  "devdoc": {
    "kind": "dev",
    "methods": {
      "DOMAIN_SEPARATOR()": {
        "details": "See {IERC20Permit-DOMAIN_SEPARATOR}."
      },
      "allowance(address,address)": {
        "details": "See {IERC20-allowance}."
      },
      "approve(address,uint256)": {
        "details": "See {IERC20-approve}. NOTE: If `amount` is the maximum `uint256`, the allowance is not updated on `transferFrom`. This is semantically equivalent to an infinite approval. Requirements: - `spender` cannot be the zero address."
      },
      "balanceOf(address)": {
        "details": "See {IERC20-balanceOf}."
      },
      "decimals()": {
        "details": "Returns the number of decimals used to get its user representation. For example, if `decimals` equals `2`, a balance of `505` tokens should be displayed to a user as `5.05` (`505 / 10 ** 2`). Tokens usually opt for a value of 18, imitating the relationship between Ether and Wei. This is the value {ERC20} uses, unless this function is overridden; NOTE: This information is only used for _display_ purposes: it in no way affects any of the arithmetic of the contract, including {IERC20-balanceOf} and {IERC20-transfer}."
      },
      "decreaseAllowance(address,uint256)": {
        "details": "Atomically decreases the allowance granted to `spender` by the caller. This is an alternative to {approve} that can be used as a mitigation for problems described in {IERC20-approve}. Emits an {Approval} event indicating the updated allowance. Requirements: - `spender` cannot be the zero address. - `spender` must have allowance for the caller of at least `subtractedValue`."
      },
      "increaseAllowance(address,uint256)": {
        "details": "Atomically increases the allowance granted to `spender` by the caller. This is an alternative to {approve} that can be used as a mitigation for problems described in {IERC20-approve}. Emits an {Approval} event indicating the updated allowance. Requirements: - `spender` cannot be the zero address."
      },
      "name()": {
        "details": "Returns the name of the token."
      },
      "nonces(address)": {
        "details": "See {IERC20Permit-nonces}."
      },
      "permit(address,address,uint256,uint256,uint8,bytes32,bytes32)": {
        "details": "See {IERC20Permit-permit}."
      },
      "symbol()": {
        "details": "Returns the symbol of the token, usually a shorter version of the name."
      },
      "totalSupply()": {
        "details": "See {IERC20-totalSupply}."
      },
      "transfer(address,uint256)": {
        "details": "See {IERC20-transfer}. Requirements: - `to` cannot be the zero address. - the caller must have a balance of at least `amount`."
      },
      "transferFrom(address,address,uint256)": {
        "details": "See {IERC20-transferFrom}. Emits an {Approval} event indicating the updated allowance. This is not required by the EIP. See the note at the beginning of {ERC20}. NOTE: Does not update the allowance if the current allowance is the maximum `uint256`. Requirements: - `from` and `to` cannot be the zero address. - `from` must have a balance of at least `amount`. - the caller must have allowance for ``from``'s tokens of at least `amount`."
      }
    },
    "version": 1
  },
  "userdoc": {
    "kind": "user",
    "methods": {},
    "version": 1
  },
  "storageLayout": {
    "storage": [
      {
        "astId": 168,
        "contract": "contracts/SteakToken.sol:SteakToken",
        "label": "_balances",
        "offset": 0,
        "slot": "0",
        "type": "t_mapping(t_address,t_uint256)"
      },
      {
        "astId": 174,
        "contract": "contracts/SteakToken.sol:SteakToken",
        "label": "_allowances",
        "offset": 0,
        "slot": "1",
        "type": "t_mapping(t_address,t_mapping(t_address,t_uint256))"
      },
      {
        "astId": 176,
        "contract": "contracts/SteakToken.sol:SteakToken",
        "label": "_totalSupply",
        "offset": 0,
        "slot": "2",
        "type": "t_uint256"
      },
      {
        "astId": 178,
        "contract": "contracts/SteakToken.sol:SteakToken",
        "label": "_name",
        "offset": 0,
        "slot": "3",
        "type": "t_string_storage"
      },
      {
        "astId": 180,
        "contract": "contracts/SteakToken.sol:SteakToken",
        "label": "_symbol",
        "offset": 0,
        "slot": "4",
        "type": "t_string_storage"
      },
      {
        "astId": 864,
        "contract": "contracts/SteakToken.sol:SteakToken",
        "label": "_nonces",
        "offset": 0,
        "slot": "5",
        "type": "t_mapping(t_address,t_struct(Counter)1653_storage)"
      },
      {
        "astId": 872,
        "contract": "contracts/SteakToken.sol:SteakToken",
        "label": "_PERMIT_TYPEHASH_DEPRECATED_SLOT",
        "offset": 0,
        "slot": "6",
        "type": "t_bytes32"
      },
      {
        "astId": 3131,
        "contract": "contracts/SteakToken.sol:SteakToken",
        "label": "owner",
        "offset": 0,
        "slot": "7",
        "type": "t_address"
      },
      {
        "astId": 3135,
        "contract": "contracts/SteakToken.sol:SteakToken",
        "label": "lastFaucetMint",
        "offset": 0,
        "slot": "8",
        "type": "t_mapping(t_address,t_uint256)"
      }
    ],
    "types": {
      "t_address": {
        "encoding": "inplace",
        "label": "address",
        "numberOfBytes": "20"
      },
      "t_bytes32": {
        "encoding": "inplace",
        "label": "bytes32",
        "numberOfBytes": "32"
      },
      "t_mapping(t_address,t_mapping(t_address,t_uint256))": {
        "encoding": "mapping",
        "key": "t_address",
        "label": "mapping(address => mapping(address => uint256))",
        "numberOfBytes": "32",
        "value": "t_mapping(t_address,t_uint256)"
      },
      "t_mapping(t_address,t_struct(Counter)1653_storage)": {
        "encoding": "mapping",
        "key": "t_address",
        "label": "mapping(address => struct Counters.Counter)",
        "numberOfBytes": "32",
        "value": "t_struct(Counter)1653_storage"
      },
      "t_mapping(t_address,t_uint256)": {
        "encoding": "mapping",
        "key": "t_address",
        "label": "mapping(address => uint256)",
        "numberOfBytes": "32",
        "value": "t_uint256"
      },
      "t_string_storage": {
        "encoding": "bytes",
        "label": "string",
        "numberOfBytes": "32"
      },
      "t_struct(Counter)1653_storage": {
        "encoding": "inplace",
        "label": "struct Counters.Counter",
        "members": [
          {
            "astId": 1652,
            "contract": "contracts/SteakToken.sol:SteakToken",
            "label": "_value",
            "offset": 0,
            "slot": "0",
            "type": "t_uint256"
          }
        ],
        "numberOfBytes": "32"
      },
      "t_uint256": {
        "encoding": "inplace",
        "label": "uint256",
        "numberOfBytes": "32"
      }
    }
  }
}